:100000000C9456000C9460000C9460000C946000FA
:100010000C9460000C9460000C9460000C946000E0
:100020000C9460000C9460000C9460000C946000D0
:100030000C9460000C9460000C9460000C946000C0
:100040000C9460000C9460000C9460000C946000B0
:100050000C9460000C9460000C9460000C946000A0
:100060000C9460000C9460000C9460000C94600090
:100070000C9460000C9460000C9460000C94600080
:100080000C9460000C9460000C9460000C94600070
:100090000C9460000C9460000C9460000C94600060
:1000A0000C9460000C9460000C94600011241FBE3E
:1000B000CFEFDAE0DEBFCDBF0E94C7000C94120183
:1000C0000C940000009709F408950000000000005F
:1000D00000000197D1F70895FC0195E502C099232E
:1000E00081F0208130E0062E02C0359527950A94D4
:1000F000E2F72170990F922B9F3F89F781E090E002
:10010000089580E090E008950F931F93CF93FC0132
:10011000208130E0062E02C0359527950A94E2F73B
:1001200020FF06C081E090E0CF911F910F910895CC
:10013000C62F8C01CA010E946200F801808190E004
:1001400002C095958795CA95E2F781709927CF915E
:100150001F910F910895FA01DC018C9186FF0CC06C
:10016000808187FD0CC08F5F8083803454F4813C94
:1001700014F480EC80830895808118162CF410828A
:10018000089580E48083089581508083EECFCF93DB
:10019000DF931F92CDB7DEB78FEF84B990EA95B9A0
:1001A0001AB88BB91982FF24F394E12C01E080E2A4
:1001B000D82E90E4C92E09C0E11031C095B19C251C
:1001C00095B9EE24E394012FF82E65E089E290E0E2
:1001D0000E946C00182F081729F0011103C085B187
:1001E0008D2585B9AE014F5F5F4F66E089E290E0F3
:1001F0000E94AB004AE050E067E089E290E00E9494
:100200008400F81629F0F11003C095B1905895B903
:10021000998191328CF69032B1F2E12CD4CFEE2458
:08022000E394D1CFF894FFCF65
:00000001FF
